{
  "contractName": "MyContract",
  "abi": [
    {
      "inputs": [],
      "name": "numOFFunders",
      "outputs": [
        {
          "internalType": "uint256",
          "name": "",
          "type": "uint256"
        }
      ],
      "stateMutability": "view",
      "type": "function",
      "constant": true
    },
    {
      "inputs": [],
      "name": "owner",
      "outputs": [
        {
          "internalType": "address",
          "name": "",
          "type": "address"
        }
      ],
      "stateMutability": "view",
      "type": "function",
      "constant": true
    },
    {
      "stateMutability": "payable",
      "type": "receive",
      "payable": true
    },
    {
      "inputs": [],
      "name": "test1",
      "outputs": [],
      "stateMutability": "nonpayable",
      "type": "function"
    },
    {
      "inputs": [
        {
          "internalType": "address",
          "name": "newOwner",
          "type": "address"
        }
      ],
      "name": "transferOwnerShip",
      "outputs": [],
      "stateMutability": "nonpayable",
      "type": "function"
    },
    {
      "inputs": [],
      "name": "logging",
      "outputs": [
        {
          "internalType": "bytes32",
          "name": "",
          "type": "bytes32"
        }
      ],
      "stateMutability": "pure",
      "type": "function",
      "constant": true
    },
    {
      "inputs": [],
      "name": "addFunds",
      "outputs": [],
      "stateMutability": "payable",
      "type": "function",
      "payable": true
    },
    {
      "inputs": [],
      "name": "getOwner",
      "outputs": [
        {
          "internalType": "address",
          "name": "",
          "type": "address"
        }
      ],
      "stateMutability": "nonpayable",
      "type": "function"
    },
    {
      "inputs": [
        {
          "internalType": "uint256",
          "name": "amount",
          "type": "uint256"
        }
      ],
      "name": "withDraw",
      "outputs": [],
      "stateMutability": "nonpayable",
      "type": "function"
    },
    {
      "inputs": [
        {
          "internalType": "uint256",
          "name": "index",
          "type": "uint256"
        }
      ],
      "name": "getFunderbyindex",
      "outputs": [
        {
          "internalType": "address",
          "name": "",
          "type": "address"
        }
      ],
      "stateMutability": "view",
      "type": "function",
      "constant": true
    },
    {
      "inputs": [],
      "name": "getAllFunders",
      "outputs": [
        {
          "internalType": "address[]",
          "name": "",
          "type": "address[]"
        }
      ],
      "stateMutability": "view",
      "type": "function",
      "constant": true
    }
  ],
  "bytecode": "0x608060405234801561001057600080fd5b50336000806101000a81548173ffffffffffffffffffffffffffffffffffffffff021916908373ffffffffffffffffffffffffffffffffffffffff160217905550610bf7806100606000396000f3fe6080604052600436106100955760003560e01c80638863dd1a116100595780638863dd1a14610174578063893d20e81461019d5780638da5cb5b146101c8578063a26759cb146101f3578063ee7e94f3146101fd5761009c565b806314174f33146100a15780636b59084d146100ca5780636fbbb55d146100e157806374b7c0011461010c5780637c7fc4f7146101375761009c565b3661009c57005b600080fd5b3480156100ad57600080fd5b506100c860048036038101906100c39190610819565b610228565b005b3480156100d657600080fd5b506100df61034d565b005b3480156100ed57600080fd5b506100f66103dd565b6040516101039190610955565b60405180910390f35b34801561011857600080fd5b50610121610523565b60405161012e91906109d2565b60405180910390f35b34801561014357600080fd5b5061015e60048036038101906101599190610819565b610529565b60405161016b919061093a565b60405180910390f35b34801561018057600080fd5b5061019b600480360381019061019691906107f0565b610566565b005b3480156101a957600080fd5b506101b2610637565b6040516101bf919061093a565b60405180910390f35b3480156101d457600080fd5b506101dd610660565b6040516101ea919061093a565b60405180910390f35b6101fb610684565b005b34801561020957600080fd5b5061021261079e565b60405161021f9190610977565b60405180910390f35b8067016345785d8a0000811115610274576040517f08c379a000000000000000000000000000000000000000000000000000000000815260040161026b906109b2565b60405180910390fd5b60008054906101000a900473ffffffffffffffffffffffffffffffffffffffff1673ffffffffffffffffffffffffffffffffffffffff163373ffffffffffffffffffffffffffffffffffffffff1614610302576040517f08c379a00000000000000000000000000000000000000000000000000000000081526004016102f990610992565b60405180910390fd5b3373ffffffffffffffffffffffffffffffffffffffff166108fc839081150290604051600060405180830381858888f19350505050158015610348573d6000803e3d6000fd5b505050565b60008054906101000a900473ffffffffffffffffffffffffffffffffffffffff1673ffffffffffffffffffffffffffffffffffffffff163373ffffffffffffffffffffffffffffffffffffffff16146103db576040517f08c379a00000000000000000000000000000000000000000000000000000000081526004016103d290610992565b60405180910390fd5b565b6060600060015467ffffffffffffffff811115610423577f4e487b7100000000000000000000000000000000000000000000000000000000600052604160045260246000fd5b6040519080825280602002602001820160405280156104515781602001602082028036833780820191505090505b50905060005b60015481101561051b576002600082815260200190815260200160002060009054906101000a900473ffffffffffffffffffffffffffffffffffffffff168282815181106104ce577f4e487b7100000000000000000000000000000000000000000000000000000000600052603260045260246000fd5b602002602001019073ffffffffffffffffffffffffffffffffffffffff16908173ffffffffffffffffffffffffffffffffffffffff1681525050808061051390610a7d565b915050610457565b508091505090565b60015481565b60006002600083815260200190815260200160002060009054906101000a900473ffffffffffffffffffffffffffffffffffffffff169050919050565b60008054906101000a900473ffffffffffffffffffffffffffffffffffffffff1673ffffffffffffffffffffffffffffffffffffffff163373ffffffffffffffffffffffffffffffffffffffff16146105f4576040517f08c379a00000000000000000000000000000000000000000000000000000000081526004016105eb90610992565b60405180910390fd5b806000806101000a81548173ffffffffffffffffffffffffffffffffffffffff021916908373ffffffffffffffffffffffffffffffffffffffff16021790555050565b60008060009054906101000a900473ffffffffffffffffffffffffffffffffffffffff16905090565b60008054906101000a900473ffffffffffffffffffffffffffffffffffffffff1681565b600360003373ffffffffffffffffffffffffffffffffffffffff1673ffffffffffffffffffffffffffffffffffffffff16815260200190815260200160002060009054906101000a900460ff1661079c576000600160008154809291906106ea90610a7d565b919050559050336002600083815260200190815260200160002060006101000a81548173ffffffffffffffffffffffffffffffffffffffff021916908373ffffffffffffffffffffffffffffffffffffffff1602179055506001600360003373ffffffffffffffffffffffffffffffffffffffff1673ffffffffffffffffffffffffffffffffffffffff16815260200190815260200160002060006101000a81548160ff021916908315150217905550505b565b60007f48656c6c6f000000000000000000000000000000000000000000000000000000905090565b6000813590506107d581610b93565b92915050565b6000813590506107ea81610baa565b92915050565b60006020828403121561080257600080fd5b6000610810848285016107c6565b91505092915050565b60006020828403121561082b57600080fd5b6000610839848285016107db565b91505092915050565b600061084e838361085a565b60208301905092915050565b61086381610a37565b82525050565b61087281610a37565b82525050565b6000610883826109fd565b61088d8185610a15565b9350610898836109ed565b8060005b838110156108c95781516108b08882610842565b97506108bb83610a08565b92505060018101905061089c565b5085935050505092915050565b6108df81610a49565b82525050565b60006108f2602183610a26565b91506108fd82610af5565b604082019050919050565b6000610915602183610a26565b915061092082610b44565b604082019050919050565b61093481610a73565b82525050565b600060208201905061094f6000830184610869565b92915050565b6000602082019050818103600083015261096f8184610878565b905092915050565b600060208201905061098c60008301846108d6565b92915050565b600060208201905081810360008301526109ab816108e5565b9050919050565b600060208201905081810360008301526109cb81610908565b9050919050565b60006020820190506109e7600083018461092b565b92915050565b6000819050602082019050919050565b600081519050919050565b6000602082019050919050565b600082825260208201905092915050565b600082825260208201905092915050565b6000610a4282610a53565b9050919050565b6000819050919050565b600073ffffffffffffffffffffffffffffffffffffffff82169050919050565b6000819050919050565b6000610a8882610a73565b91507fffffffffffffffffffffffffffffffffffffffffffffffffffffffffffffffff821415610abb57610aba610ac6565b5b600182019050919050565b7f4e487b7100000000000000000000000000000000000000000000000000000000600052601160045260246000fd5b7f6f6e6c79206f776e65722063616e2063616c6c20746869732066756e6374696f60008201527f6e00000000000000000000000000000000000000000000000000000000000000602082015250565b7f43616e6e6f74207769746864726177206d6f7265207468616e20302e3120455460008201527f4800000000000000000000000000000000000000000000000000000000000000602082015250565b610b9c81610a37565b8114610ba757600080fd5b50565b610bb381610a73565b8114610bbe57600080fd5b5056fea26469706673582212206b3a6413533f240ab2d3a09485e1670f6c31963b838bbd5e358dae0605fcdd9a64736f6c63430008040033",
  "immutableReferences": {},
  "source": "pragma solidity >=0.4.22 <0.9.0;\r\n\r\nimport \"./Owner.sol\";\r\nimport \"./Logger.sol\";\r\nimport \"./IContract.sol\";\r\n\r\ncontract MyContract is Owner, Logger, IContract {\r\n    //address[] private funders;\r\n\r\n    uint256 public numOFFunders;\r\n    // address public owner;\r\n\r\n    mapping(uint256 => address) private funders;\r\n    mapping(address => bool) private addresses;\r\n\r\n    // constructor() {\r\n    //     //it is the first thing that is called\r\n    //     owner = msg.sender;\r\n    // }\r\n\r\n    // modifier onlyOwner() {\r\n    //     require(msg.sender == owner, \"only owner can call this function\");\r\n    //     _;\r\n    // }\r\n\r\n    //we take the onlyOwner modifier in Owner.sol\r\n    //we can inherit that from there now\r\n\r\n    //rather than writing require statements again and again\r\n    //we can use modifier\r\n    modifier limitWithdraw(uint256 amount) {\r\n        require(\r\n            amount <= 100000000000000000,\r\n            \"Cannot withdraw more than 0.1 ETH\"\r\n        );\r\n        _; //undescore semicolon here means the body of the func in which\r\n        //the modifier is called\r\n    }\r\n\r\n    //we can restrict any function by using a modifier\r\n\r\n    //for ex\r\n\r\n    /*\r\n    function test1() external {\r\n\r\n        //some managing stuff that only admin should have access to\r\n       \r\n\r\n\r\n    }\r\n     //so we create a modifier and use this function as\r\n\r\n    function test1() external name_of_modifier(){\r\n\r\n    }\r\n\r\n    \r\n     */\r\n\r\n    function test1() external onlyOwner {\r\n        //now if the msg sender address has the address of owner\r\n        //then only they will be able to call this function\r\n        //means only owner can call this function\r\n    }\r\n\r\n    function transferOwnerShip(address newOwner) external onlyOwner {\r\n        owner = newOwner;\r\n    }\r\n\r\n    receive() external payable {}\r\n\r\n    // this function is a special function\r\n    // it is called when you make a transaction that doesn't specify function\r\n    // name to call\r\n\r\n    //external function are part of the smart contract interface\r\n    // which means they can be called via contract and other txs\r\n\r\n    //payable-> when we make a txn we can specify value property\r\n    // which can provide ether in  txn\r\n\r\n    function logging() public pure override returns (bytes32) {\r\n        return \"Hello\";\r\n    }\r\n\r\n    //abstract function from logger\r\n\r\n    function addFunds() external payable override {\r\n        if (!addresses[msg.sender]) {\r\n            uint256 index = numOFFunders++;\r\n            funders[index] = msg.sender;\r\n            addresses[msg.sender] = true;\r\n        }\r\n    }\r\n\r\n    function getOwner() external returns (address) {\r\n        return owner;\r\n    }\r\n\r\n    function withDraw(uint256 amount)\r\n        external\r\n        override\r\n        limitWithdraw(amount)\r\n        onlyOwner\r\n    {\r\n        // require(\r\n        //     amount <= 100000000000000000,\r\n        //     \"Cannot withdraw more than 0.1 ETH\"\r\n        // );\r\n\r\n        //since we added our modifier in the function defination\r\n        //it will take that condition from the modifier\r\n\r\n        payable(msg.sender).transfer(amount);\r\n\r\n        //if (amount < 1000000000000000000) payable(msg.sender).transfer(amount);\r\n    }\r\n\r\n    //withdraw will withdraw the money from smart contract\r\n    //and give it to the user address specified\r\n    // the address of the user that we mention in from during calling\r\n\r\n    function getFunderbyindex(uint256 index) public view returns (address) {\r\n        return funders[index];\r\n    }\r\n\r\n    function getAllFunders() external view returns (address[] memory) {\r\n        address[] memory _funders = new address[](numOFFunders);\r\n\r\n        for (uint256 i = 0; i < numOFFunders; i++) {\r\n            _funders[i] = funders[i];\r\n        }\r\n        return _funders;\r\n    }\r\n}\r\n\r\n//to migrare again\r\n\r\n//truffle migrare --reset\r\n\r\n//truffle console\r\n\r\n//const instance = await MyContract.deployed();\r\n\r\n//instance.addFunds({from:accounts[0],value:\"2000000000000000000\"})\r\n\r\n//instance.getAllFunders();\r\n\r\n//instance.getFunderbyIndex(0);\r\n\r\n//instance.withDraw(\"500000000000000000\", {from:accounts[0]})\r\n",
  "sourcePath": "E:\\1. Final Year\\project1\\contracts\\MyContract.sol",
  "compiler": {
    "name": "solc",
    "version": "0.8.4+commit.c7e474f2.Emscripten.clang"
  },
  "schemaVersion": "3.4.7",
  "updatedAt": "2022-04-24T16:55:55.656Z",
  "networkType": "ethereum",
  "devdoc": {
    "kind": "dev",
    "methods": {},
    "version": 1
  },
  "userdoc": {
    "kind": "user",
    "methods": {},
    "version": 1
  }
}